:020000040800F2
:1000000098CC002031030008656000089542000884
:10001000B95C00085D0C0008E588000800000000DD
:100020000000000000000000000000007102000855
:10003000CD0F000800000000CD0200088164000818
:100040004B0300084B0300084B0300084B03000858
:100050004B0300084B0300084B0300084B03000848
:100060004B0300084B0300084B0300084B03000838
:10007000050E00084B0300084B0300084B03000863
:100080004B0300084B0300084B030008790C0008E1
:10009000610C00086D0C00084B0300084B030008BE
:1000A0004B0300084B0300084B0300084B030008F8
:1000B0003D6500084B0300084B0300084B03000894
:1000C0004B0300084B0300084B0300084B030008D8
:1000D0004B030008B96C00084B030008C56C00080E
:1000E0004B0300084B0300084B0300084B030008B8
:1000F0004B0300084B0300084B0300084B030008A8
:100100004B0300084B0300084B0300084B03000897
:100110004B0300084B0300084B0300084B03000887
:100120004B0300084B030008110E00084B030008A6
:100130004B0300084B0300084B0300084B03000867
:100140004B0300084B0300084B030008AD60000898
:100150004B0300081D0E0008290E0008616D000801
:100160004B0300084B0300084B0300084B03000837
:100170004B0300084B0300084B030008000000007D
:100180004B0300084B03000800F002F800F060F891
:100190000AA090E8000C82448344AAF10107DA45E2
:1001A00001D100F055F8AFF2090EBAE80F0013F0D4
:1001B000010F18BFFB1A43F00103184790C200005B
:1001C000B0C200000A444FF0000C10F8013B13F0DD
:1001D000070408BF10F8014B1D1108BF10F8015BA0
:1001E000641E05D010F8016B641E01F8016BF9D193
:1001F00013F0080F1EBF10F8014BAD1C0C1B09D1EA
:100200006D1E58BF01F801CBFAD505E014F8016B5B
:1002100001F8016B6D1EF9D59142D6D370470000ED
:100220000023002400250026103A28BF78C1FBD8FF
:10023000520728BF30C148BF0B6070471FB50BF095
:1002400008FF9DE8030000F03FFA1FBD10B510BD88
:1002500000F0A6FA1146FFF7F1FF09F0F3FD00F0F8
:10026000C4FA03B4FFF7F2FF03BC00F0F5FA000094
:100270002C4B19680868B0E8F04F80F30988BFF389
:100280006F8F4FF0000080F311887047000000006E
:1002900008480068006880F308884FF0000080F389
:1002A000148862B661B6BFF34F8FBFF36F8F00DF64
:1002B00000BF00BF08ED00E0DFF80C00016841F46A
:1002C00070010160704700BF88ED00E0EFF3098026
:1002D000BFF36F8F134B1A681EF0100F08BF20ED8D
:1002E000108A20E9F04F106009B44FF0500080F3FD
:1002F0001188BFF34F8FBFF36F8F0AF0F5FC4FF0FB
:10030000000080F3118809BC19680868B0E8F04F54
:100310001EF0100F08BFB0EC108A80F30988BFF3FD
:100320006F8F70472C000020EFF3058070470000AE
:100330000948804709480047FEE7FEE7FEE7FEE779
:10034000FEE7FEE7FEE7FEE7FEE7FEE704480549B5
:10035000054A064B704700002D650008890100081A
:10036000986C002098CC0020988C0020988C00205D
:1003700070B5064600F08CF9056806F10B0020F018
:100380000704B4429CBF002070BD2B466A68BAB116
:100390001068A04210D304F1080188423CBF5068A5
:1003A000586007D35168101941601168091B01603A
:1003B00058601460101D70BD13465268002AE7D1C2
:1003C0002146284600F06CF90028DED170BD70B5DA
:1003D0000446051F00F05CF90068002C14BF446857
:1003E00070BD002C18BFAC423CBF20466468F8D3F7
:1003F00001680A18AA4218BF456003D12A68054659
:100400001144016028684119A1421CBF6C6070BD95
:100410006168696021680844286070BD53EA020C75
:1004200000F069802DE9F04B4FF00006002B1FBF54
:10043000B3FA83F503FA05F424FA05F65E4012BF19
:100440001643B2FA82F502FA05F4C5F120051EBF83
:1004500022FA05FC44EA0C04203556EA044C4FEA23
:10046000144418BF641C4FF000084FF0000990427C
:1004700071EB030C39D3002919BFB1FA81F701FAE6
:1004800007F6B0FA80F700FA07F6C7F120071EBF9B
:1004900020FA07FC46EA0C062037B6FBF4FCA7EB73
:1004A0000507103F07F01F0BCBF120060CFA0BFBE2
:1004B0002CFA06F644BFB3460026202FA4BF5E46A2
:1004C0004FF0000B5BEA060C08BF4FF0010B19EB75
:1004D0000B09ABFB027C48EB0608C01B06FB02CCF9
:1004E0000BFB03CC71EB0C01C1E70B460246414606
:1004F0004846BDE8F08B13B54FF000004FF0000107
:10050000AFF30080BDE81C407047032A40F2308002
:1005100010F0030C00F0158011F8013BBCF1020F44
:10052000624498BF11F801CB00F8013B38BF11F8C5
:10053000013BA2F1040298BF00F801CB38BF00F8DC
:10054000013B11F0030300F02580083AC0F0088059
:1005500051F8043B083A51F804CBA0E80810F5E73D
:10056000121D5CBF51F8043B40F8043BAFF3008020
:10057000D20724BF11F8013B11F801CB48BF11F895
:10058000012B24BF00F8013B00F801CB48BF00F865
:10059000012B704710B5203AC0F00B80B1E818501D
:1005A000203AA0E81850B1E81850A0E81850BFF45D
:1005B000F5AF5FEA027C24BFB1E81850A0E81850FC
:1005C00044BF18C918C0BDE810405FEA827C24BF50
:1005D00051F8043B40F8043B08BF7047D20728BFDE
:1005E00031F8023B48BF11F8012B28BF20F8023B2D
:1005F00048BF00F8012B70474FF000020429C0F0FB
:10060000128010F0030C00F01B80CCF1040CBCF144
:10061000020F18BF00F8012BA8BF20F8022BA1EB96
:100620000C0100F00DB85FEAC17C24BF00F8012B7B
:1006300000F8012B48BF00F8012B70474FF0000273
:1006400000B5134694469646203922BFA0E80C50C8
:10065000A0E80C50B1F12001BFF4F7AF090728BFA3
:10066000A0E80C5048BF0CC05DF804EB890028BF1F
:1006700040F8042B08BF704748BF20F8022B11F048
:10068000804F18BF00F8012B7047704770477047C4
:10069000004870473C6C00207047704770477047B7
:1006A00038B504460A4600206946AFF300800028AA
:1006B00008BF38BD02460099204600F04FF80120DF
:1006C00038BD012000F064B8F8B5AFF300800546EE
:1006D00000200C46102000BF0646A819A0420DD9E4
:1006E000324669460020AFF30080070008BF00F0E3
:1006F0004FF80098A04218BF0546C419FFF7C8FF7D
:1007000005600746F01D20F007004619284600F056
:100710000AF8B44208BFF8BDA21B31463868BDE8EC
:10072000F84000F01BB800210160C0E901107047DB
:100730001020704710B500F00DF8006810BD10B51E
:10074000044600F007F8046010BD00000048704740
:10075000346C002000487047346C00200346406829
:100760008C46002818BF88423CBF03464068F8D337
:1007700018681844884207D00CF1030020F00700E5
:10078000001D411A521A0146081D0A60FFF71FBEDC
:1007900010B500F039F8BDE8104000F02FB87047F0
:1007A0007546FFF7D3FFAE4605006946534620F075
:1007B0000700854618B020B5FFF7C8FDBDE820400A
:1007C0004FF000064FF000074FF000084FF0000B0D
:1007D00021F00701AC46ACE8C009ACE8C009ACE8C0
:1007E000C009ACE8C0098D46704710B50446AFF3A8
:1007F00000802046BDE81040FFF733BD002801D03F
:1008000000F02AB87047000010B5012805D000217B
:1008100003A000F027F8012010BD09A1F8E70000AF
:1008200053494752544D454D3A204F7574206F66D9
:100830002068656170206D656D6F72790000000041
:100840003A2048656170206D656D6F727920636F25
:10085000727275707465640001491820ABBEFEE7C2
:100860002600020070B505460C460A2000E06D1C0B
:1008700000F011F835B128780028F8D102E0641CA6
:1008800000F009F814B120780028F8D1BDE87040D4
:100890000A20AFF3008008B569468DF800000320F8
:1008A000ABBE08BD01221021014801F0BFBB000012
:1008B0000000024000221021014801F0B7BB0000F7
:1008C000000002407047000001221146014801F07B
:1008D000ADBB00000004024000220121014801F0EC
:1008E000A5BB000000040240704730B504464FF439
:1008F0007A7502E0284600F004F8641EA4B2F9D22A
:1009000030BD70B54FF0E02500216C69A822AB69BD
:100910005043AA699A42FCD002D2A3EB020302E040
:10092000A4EB02063344194413468142F1D370BD4F
:1009300010B5FFF7C7FFFFF7D7FF08F0DDFE04464D
:1009400008F060FF40EA04010E489FED0D0A80EDBB
:10095000090A9FED0D0A80ED0A0A9FED0C0A80ED51
:100960000B0A9FED0B0A80ED0C0A9FED0A0A80ED41
:10097000080A9FED090A80ED060A084610BD00002E
:100980008756A2BA784B0020180D4B3B3FDDB43B95
:100990002E441E4112E37D3F000020427CB50446F8
:1009A000002000900190FFF785FF922000F0C8F82A
:1009B00006226946122000F0A5F8FFF773FF9DF8A4
:1009C00001009DF80010000200B2084300EE100A7A
:1009D0004B4DB8EEC00AD5ED010A60EE200A94ED49
:1009E000080A60EE800AC4ED000A9DF803009DF835
:1009F0000210000200B2084300EE900AB8EEE01ABE
:100A0000D5ED010A21EE201A21EE001A84ED011A1B
:100A10009DF805009DF80410000200B2084301EEA5
:100A2000100AB8EEC11A61EE200A20EE800A84EDA9
:100A3000020AFFF751FF08226946002000F062F821
:100A4000FFF742FF9DF800000F2834D19DF8030006
:100A50009DF80210000200B2084300EE100AD4ED27
:100A6000090AB8EEC01A95ED020A51EE000AC4ED6B
:100A7000030A9DF805009DF80410000200B2084327
:100A800000EE900A94ED0A1AF8EEE00A10EE801AD1
:100A900084ED041A9DF807009DF80610000200B2CC
:100AA000084300EE900A94ED0B1AF8EEE00A10EEFF
:100AB000801A84ED051AFFF7FDFEA22000F040F831
:100AC00002226946222000F01DF8FFF7EBFE9DF898
:100AD00000009DF80110C00040EA5110B0F5806F91
:100AE00001DBA0F5006000EE100AB4EE001AF8EE8B
:100AF000C00AB3EE070A00EE810A84ED070A7CBD46
:100B00008801002070B514460D4640F0800000F0CA
:100B100017F806E0552000F013F8641E05F8010BE5
:100B2000E4B2002CF6D170BD10B50C4640F0800048
:100B300000F006F8552000F003F8207010BD00000A
:100B400001B582B04FF47A700090012301AA02A986
:100B5000024802F06DFB9DF804000EBDBC050020AC
:100B600010B50C46FFF7ECFF2046BDE81040FFF73C
:100B7000E7BFB6EE002A92ED020AB0EE421AD2EDBD
:100B8000030A00EE401AD0ED001AD0ED013A00EE53
:100B9000E01A21EE213A92ED011AD2ED001A61EE2F
:100BA000002A41EEE02A61EE200A41EE800A02EEC0
:100BB000A33A90ED020AF0EE002A00EE803A23EE0E
:100BC000220A81ED000AD2ED010AD2ED021A92ED5D
:100BD000001A92ED030A20EEA13AD0ED003A90ED12
:100BE000014A01EE003A23EE233AF0EE423A40EE9B
:100BF000E03A40EE403A21EE800A01EE600A03EE50
:100C0000843AD0ED020A00EE203A23EE220A81ED6A
:100C1000010AD2ED010AD2ED031A92ED020A92ED19
:100C2000001A20EEA13A60EE211AD0ED003A00EE53
:100C3000E02A01EE403A41EE201A90ED011A00EE52
:100C4000402A23EE233A90ED020A01EE813A02EEA9
:100C5000003A23EE220A81ED020A7047FEE7000007
:100C6000014800F0E6BC000094050020014800F0B7
:100C7000E0BC000094050020014800F0DABC000050
:100C80009405002038B50E4C40F2FF152560002574
:100C9000A560E560082525610A4C050A257060708D
:100CA000080AA070E170100A20716271180AA07120
:100CB000E3716B4622460249034800F05BFB38BDF6
:100CC000D44B0020C0010020940500200020704774
:100CD0000020704710B500220449054806F02CFAA0
:100CE0000449034806F01BFA002010BD305D0020C7
:100CF000545000203055002010B578B171B10C6807
:100D000064B11C2C00D91C24014622460648FFF77A
:100D1000FCFBA2B20549044807F0A0FD044806F018
:100D2000D7F9002010BD000037500020F54F0020FB
:100D3000545000200A4610B50146044803F0E6F975
:100D4000002801D04FF0FF3010BD0000A4060020A5
:100D500000207047124C134D00232069194600EE05
:100D6000100ABDEEC00A10EE100A02B2606800EE72
:100D7000100ABDEEC00A10EE100A00B2FFF782FFA3
:100D8000E06801EE100A206800EE900A288800EE64
:100D9000100A0548B8EE400A09F0D4FFDCE700006D
:100DA0006C4C0020844C00203407002090ED010A98
:100DB000D1ED020A91ED011A20EE200AD0ED020ACF
:100DC00000EEC10A82ED000A90ED020AD1ED000AA0
:100DD00091ED021A20EE200AD0ED000A00EEC10AC1
:100DE00082ED010A90ED000AD1ED010A91ED001AA1
:100DF00020EE200AD0ED010A00EEC10A82ED020ABF
:100E000070470000014800F0A5BE00003C0800202B
:100E1000014800F09FBE00007C070020014800F060
:100E200099BE00009C080020014800F093BE00001D
:100E3000DC07002001681823CAB2103AB2FBF3F2B3
:100E4000054B6FF30901032A9B5CC36500D9091D9B
:100E50008165084670470000F4C0000810B50146DF
:100E600000208B698A6A4FF0C07453B1B3F5005FFC
:100E700015D072B1012A0CD0022A0AD0032A09D156
:100E800004E01AB1012A06D0022A03D1C96AC901B5
:100E900000D5012010BDC96AA142FAD010BD002AB8
:100EA000F7D0012AF2D0022AF3D0032AF3D010BDE2
:100EB00030B50468256825F48025256004686360E2
:100EC0008368402B036803D099600068C26030BD1E
:100ED0009A600068C16030BD0A4808B501780029F1
:100EE0000ED101210170084949680091426991427F
:100EF00002D20169491C0161009941610021017020
:100F000008BD000000030020001000E00A4841680E
:100F10000A4AD2ED010A4268521AF8EE601A01EE4E
:100F2000102AB8EE411A60EE211AB4EEE11AF1EE81
:100F300010FAF0D370470000001000E0000300201A
:100F400000B50E492DED028B81B049680091016812
:100F5000009A511A00EE101A0949F8EE400A91ED74
:100F6000010A0260B8EE400A80EE808AFFF7B4FF03
:100F700001B0B0EE480ABDEC028B00BD001000E0ED
:100F8000000300200D490A6842F080720A600C4993
:100F900000224A600B6843F001030B6009494FF4DB
:100FA0007A734843B0FBF3F30749C1E90103054BEA
:100FB000B0FBF3F0C1E90302FFF78EBFFCED00E0E8
:100FC000001000E040420F0000030020704790ED49
:100FD000000AD1ED000A91ED011A20EE200AD0EDB1
:100FE000010A00EE810AD0ED020A91ED021A00EE2C
:100FF000810A704770B505462DED028B8AB000203E
:101000003B490690079008900EC90590CDE9023043
:10101000CDE90012374E9FED388A049004463548DA
:10102000FFF7BCFCDDED060A96ED001AB0EE480AAB
:1010300070EE810ACDED060ADDED070A96ED011A84
:1010400070EE810ACDED070ADDED080A96ED021A71
:1010500070EE810ACDED080AFFF758FF641CE4B278
:10106000642CDCD300219FED250A06AA02EB810047
:10107000491CD0ED000AC9B2032980EE801A80ED28
:10108000001AF3D3104604F0EEFF694606A8FFF7F6
:101090009EFF07F0DBFCB0EE408A03AA694606A873
:1010A000FFF784FE03A804F0DEFFB6EE000A28EE88
:1010B000008AB0EE480A07F013FF85ED000A00240D
:1010C00003AEB0EE480A07F0B3FF06EB8400D0EDA4
:1010D000000A05EB8400641C20EE200AE4B2022C16
:1010E00080ED010AEDD30AB0BDEC028B70BD0000AB
:1010F000D4C10008784B00206F12833A0000C84228
:10110000B6EE002A92ED020AB0EE421AD2ED030AC0
:1011100000EE401AD0ED001AD0ED013A00EEE01AD0
:1011200021EE213A92ED011AD2ED001A61EE002A69
:1011300041EEA02A61EE200A41EEC00A02EEA33A77
:1011400090ED020AF0EE002A00EE803A23EE220A29
:1011500081ED000AD2ED010AD2ED021A92ED001AD9
:1011600092ED030A20EEA13AD0ED003A90ED014A4B
:1011700001EE403A23EE233AF0EE423A40EEE03AF6
:1011800040EE403A21EE800A01EE200A03EE843A56
:10119000D0ED020A00EE203A23EE220A81ED010A88
:1011A000D2ED010AD2ED031A92ED020A92ED001A75
:1011B00020EEA13A60EE211AD0ED003A00EEE02ACE
:1011C00001EE003A41EE601A90ED011A00EE402A5D
:1011D00023EE233A90ED020A01EE813A02EE003A44
:1011E00023EE220A81ED020A704772B6FEE7000084
:1011F00010B558B1084C491E0BD310F8013B5340B1
:10120000DBB234F8133083EA1222F4E74FF6FF70B2
:1012100010BD104610BD0000F0C100082DED088B78
:1012200001200027040202463D4D3E4E21462F601C
:101230006871A873E873C5F80670C5F80A7030467F
:1012400000F0F4FE03220021012009F01FFE3649C0
:101250000861C92009F06CFCA146B046324C334EFF
:101260009FED338B9FED349B9FED35AB9FED36BBF0
:1012700014342F71D6F802000AF07AFE41EC100BFC
:10128000B0EE484AF0EE684AB0EE493AF0EE693AFC
:10129000B0EE4A2AF0EE6A2AB0EE4B1AF0EE6B1A64
:1012A00008F01AFE51EC100B0AF048FA2060D6F84C
:1012B00006000AF05DFE41EC100BB0EE484AF0EE7D
:1012C000684AB0EE493AF0EE693AB0EE4A2AF0EEDA
:1012D0006A2AB0EE4B1AF0EE6B1A08F0FDFD51ECE5
:1012E000100B0AF02BFA606001224946404600F0DC
:1012F0009DFE0B4808F0D4FB0B492B79221D1431BD
:10130000074808F079FC0849221D1431044808F008
:1013100039FD034804F0DEFC012009F009FCA8E7D0
:10132000984C002000080240F0010020F54F0020FA
:10133000000000000080664000000000008066C0E1
:1013400000000040FB21094000000040FB2109C0D3
:1013500090F82020012A07D0022A05D0416A41F4E2
:101360008021416201207047006842690A4342615E
:1013700000207047F0B590F820500468A468012D53
:1013800005D0022D03D0416A41F480214DE014F0D4
:10139000406F01D1E50045D5C4F301640125A540A6
:1013A0001D608B684FF4C0759BB1CE6833434E68A7
:1013B00043EAC603066805EB0417F3514FF4C27302
:1013C000076803EB04130E69FE50097D012905D05F
:1013D00009E00E88CB6843EA4653EBE70168CE5834
:1013E00046F48076CE501179D2F805304FF4C676A7
:1013F00041EA0321036806EB041699511178D2F8EB
:1014000001204FF4C47341EA0221026803EB041384
:10141000D150006805EB0411425842F001024250DD
:101420000020F0BD416A41F4001141620120F0BD8D
:1014300010B590F82020012A07D0022A05D0416A71
:1014400041F480214162012010BD3B48D0F80022C8
:1014500042F00102C0F80022D0F8002222F47C52AF
:10146000C0F80022D0F800224B6A42EA0322C0F8FA
:1014700000220A7D02F01F0301229A40D0F81C329C
:101480009343C0F81C32CB69B3B9D0F80C32934304
:10149000C0F80C328C894B6864F31F434C6900EB35
:1014A000C404C4F840320C890B6864F31F434C69D0
:1014B00000EBC404C4F84432CB69012B16D1D0F838
:1014C0000C321343C0F80C320C884B6864F31F4392
:1014D0004C6900EBC404C4F840320C89CB6864F357
:1014E0001F434C6900EBC404C4F844328B69002BE1
:1014F000D0F804320ED01343C0F804320B69002B2D
:10150000D0F8143208D01343C0F81432096A012904
:1015100004D008E09343EFE79343F5E7D0F81C12BB
:101520001143C0F81C12D0F8001221F00101C0F8DC
:101530000012002010BD000000640040704770B52C
:1015400090F82040012C05D0022C03D0416A41F4D0
:10155000802128E0046809B32469A40720D04FF44F
:10156000D874056804EB01142D5915F00405956035
:1015700005682D591AD0ED08556005682C5904F0FE
:101580000204D4604FF4DA74056804EB01142E5998
:1015900006F00F06082E0CD308250DE0E468DCE702
:1015A000416A41F400114162012070BD6D0D15606A
:1015B000E3E72D5905F00F05156105682D59C5F3B1
:1015C0000725956105682C59240C54614FF4DC7291
:1015D000046802EB0112A4581C700468A458240A81
:1015E0005C700468A458240C9C700468A258120E05
:1015F000DA704FF4DE72046802EB0112A4581C7119
:101600000468A458240A5C710468A458240C9C71D2
:101610000468A258120EDA71006829B1016941F01C
:1016200020010161002070BDC16841F02001C1604E
:10163000F8E72DE9F05F0546006800244669D0F818
:1016400004908768D0F80CB0D0F810A0D0F81880BB
:10165000F10748D0F90714D001218160B80703D5FC
:10166000284600F016FA0CE0780702D54FF4006423
:1016700007E0380702D54FF4805402E0284600F016
:1016800007FAF80516D529684FF480708860B80508
:1016900003D5284600F0FFF90CE0780502D544F4A4
:1016A000005407E0380502D544F4804402E028469F
:1016B00000F0F0F9F80316D529684FF480308860FF
:1016C000B80303D5284600F0E8F90CE0780302D50A
:1016D00044F4004407E0380302D544F4803402E0C7
:1016E000284600F0D9F9300707D55FEACB6004D56A
:1016F0002968102044F40074C86070074FF0080790
:1017000007D55FEA0B7004D52868C760284600F04B
:1017100067F9B00706D52868C068800702D0284658
:1017200000F060F9700607D55FEACA6004D5296841
:10173000102044F480640861B00607D55FEA0A709F
:1017400004D528680761284600F074F9F00606D52C
:1017500028680069800702D0284600F06CF9B003C1
:1017600008D55FEAC96005D5296810204860284679
:1017700000F062F9F00307D55FEA097004D5286824
:101780004760284600F08AF9300446D55FEA497080
:1017900040D5F00504D55FEAC87001D044F00104DB
:1017A000B00504D55FEA887001D544F002047005E5
:1017B00004D55FEA487001D544F00404300529D50A
:1017C00018F0700F26D008F07000402815D006DC05
:1017D000102809D020280AD0302816D10AE0502835
:1017E0000ED0602811D10EE044F008040DE044F062
:1017F00010040AE044F0200407E044F0400404E050
:1018000044F0800401E044F480742868816921F088
:1018100070018161296804204860002C05D0686A45
:10182000204368622846FFF789FEBDE8F09F70B547
:10183000040003D094F8200010B104E0012070BD32
:10184000204600F081F82068016841F00101016044
:1018500000F0F2FB0546052604E000F0EDFB401B1E
:101860000A2811D820684068C007F6D020680168AF
:1018700021F00201016000F0DFFB05460BE000F003
:10188000DBFB401B0A2806D9606A40F40030606226
:1018900084F82060D2E7206840688007EFD4207E7B
:1018A0000128206801683DD021F080010160607E40
:1018B00001282068016838D021F040010160A07E35
:1018C00001282068016833D021F020010160E07E0A
:1018D0000128206801682ED041F010010160207FAE
:1018E00001282068016829D021F008010160607F8B
:1018F00001282068016824D021F004010160D4E9A6
:1019000002010843D4E90412114308436168491EE7
:1019100008432168C86100206062012084F820002B
:10192000002070BD41F08001C0E741F04001C5E7F3
:1019300041F02001CAE721F01001CFE741F0080192
:10194000D4E741F00401D9E710B586B0044614216C
:101950006846FEF773FE1F492068884237D11E484B
:101960000021026842F000720260006800F000701E
:10197000059019481038026842F0080202600068B9
:10198000022200F0080005900320CDE90210CDE905
:101990000002092004906946104800F05FFA002216
:1019A0000521132000F0BAFB132000F0A9FB002250
:1019B0000621142000F0B2FB142000F0A1FB00224D
:1019C0000521152000F0AAFB152000F099FB06B0B8
:1019D00010BD00000064004040380240000C02408E
:1019E0007047000010B500680D49884217D10D4BB3
:1019F0000D4A00210D48FFF7A2FD0B480068A0F535
:101A00000070053807D0022809D106490848BDE80A
:101A1000104007F08DBF064802490A38F7E710BDAD
:101A200000640040D0010020B84B00209405002045
:101A30008E4C002070477047704770B5044690F890
:101A40002000012804D0606A40F40020606217E0A2
:101A5000022084F820002068016821F00101016063
:101A600000F0EAFA05460DE000F0E6FA401B0A280D
:101A700008D9606A40F400306062052084F82000D4
:101A8000012070BD20684068C007EDD1606270BD64
:101A900070477047704770477047704770472DE92F
:101AA000F0410446876D00F0C7FA054694F835000A
:101AB0000026022806D08020606584F8346001206A
:101AC000BDE8F0812068016821F0160101602068FE
:101AD000416921F080014161206C08B9A06C20B1FE
:101AE0002068016821F0080101602068016821F088
:101AF000010101600CE000F09FFA401B052807D9A6
:101B000020206065032084F8350084F83460D7E72E
:101B100020680068C007EED194F85C103F20884030
:101B2000B860012084F8350084F834600020C7E7ED
:101B300090F83510022903D08021416501207047BB
:101B4000052180F835100068016821F0010101606D
:101B5000002070472DE9F84304464FF00009CDF806
:101B6000009063484FF41651A56D0068B0FBF1F783
:101B70002E6894F85C20082101FA02F030420FD060
:101B80002068026852070BD5026822F00402026046
:101B900094F85C008140A960606D40F001006065D0
:101BA00094F85C104FF0010808FA01F0304208D0B8
:101BB00021684969090604D5A860606D40F00200FB
:101BC000606594F85C1004208840304208D0216899
:101BD0000968890704D5A860606D40F0040060655D
:101BE00094F85C1010208840304218D021680968B1
:101BF000090714D5A86020680168490304D5006866
:101C0000000308D5A16C07E00168C90503D4016889
:101C100021F008010160216C09B12046884794F841
:101C20005C1020208840304231D021680968C90604
:101C30002DD5A86094F8350005282068016806D0E5
:101C4000490347D5006800031DD4616C1CE021F0F6
:101C5000160101602068416921F080014161206C1A
:101C600008B9A06C20B12068016821F0080101606A
:101C700094F85C103F208840A86084F8358084F890
:101C80003490216D1FE0E16B09B120468847606DFB
:101C900000282BD0606DC00714D0052084F83500D3
:101CA0002068016821F0010101600098401C00904B
:101CB000B84203D820680068C007F6D184F83580A0
:101CC00084F83490E16C002910D001B02046BDE8C2
:101CD000F04308470168C905D5D4016821F0100117
:101CE000016084F8358084F83490CCE7BDE8F8834F
:101CF000240000202DE9F041044600F09DF905463E
:101D00005CB1022084F83500002684F83460206835
:101D1000016821F0010101600DE00120BDE8F081C2
:101D200000F08AF9401B052805D9202060650320B2
:101D300084F83500F2E720680068C007F0D1216818
:101D40000A6820480240D4E901031843D4E9033566
:101D50002B43184363691843A3691843E369184385
:101D6000236A18431043626A042A03D1D4E90B237F
:101D70001A431043086020684069656A20F0070133
:101D800028460D43012704280CD1A06A0543E06AC8
:101D900040B12046FFF762F820B14020606584F82A
:101DA0003570BAE7206845612046FFF743F894F89C
:101DB0005C203F2191408160666584F83570002089
:101DC000ACE700003F8010F02DE9F0410446866D3D
:101DD00090F83400002501280DD0012084F834004B
:101DE00094F835700020012F07D084F834000225C4
:101DF0002846BDE8F0810220FBE7022784F8357011
:101E000060652046FFF754F894F85C103F20884046
:101E1000B0602068016841F016010160206C20B1BB
:101E20002068016841F0080101602068016841F004
:101E300001010160DCE7000070B5044600F0FCF829
:101E40000546601C02D004480078044400F0F4F811
:101E5000401BA042FAD370BD180000202DE9F84FB6
:101E6000DFF89C910022A9F1040B03274FF00F0C1F
:101E700009F1040AABF1040E01250B6895402B40D3
:101E8000AB426ED10C7904F00304012C01D0022C7A
:101E900015D18668540007FA04F826EA0806D1F836
:101EA0000C8008FA04F848EA0608C0F8088044687C
:101EB000AC430D79C5F300159540254345600C7979
:101EC000E443A40708D0C568540007FA04F6B543F4
:101ED0008E68A6402E43C6600C7904F00304022CE1
:101EE00011D1D40800EB8406356A5407E40E0CFACD
:101EF00004F825EA0805D1F8108008FA04F848EA41
:101F00000508C6F820800568540007FA04F6B543B2
:101F10000E7906F00306A6402E4306604C6814F4C2
:101F2000403F66D0374C256845F4804525602468DD
:101F300022F0030504F480440094334C05EB0408BC
:101F4000D8F808589407260F0CFA06F4A5432F4C2E
:101F5000A04201D1002424E02D4CA04202D1012452
:101F60001FE046E02B4CA04201D1022419E02A4C8C
:101F7000A04201D1032414E0284CA04201D1042442
:101F80000FE0274CA04201D105240AE0254CA042D5
:101F900001D1062405E0244CA04201D1072400E031
:101FA0000824B4402C43C8F80848D9F800404D46EE
:101FB0004E689C43F60200D51C432C60DAF80040C2
:101FC00055464E689C43B60200D51C432C60DBF896
:101FD00000405D464E689C43B60300D51C432C6010
:101FE000DEF8004075464E689C43F60300D51C435E
:101FF0002C60521C102AFFF43FAFBDE8F88F0000A0
:10200000083C0140443802400030014000000240DA
:102010000004024000080240000C02400010024090
:102020000014024000180240001C02400AB1816105
:1020300070470904FBE70000014880687047000012
:1020400018000020024881680278114481607047BE
:10205000180000200B4810B5016841F400710160C0
:10206000016841F480610160016841F480710160A0
:10207000032000F073F80F2000F006F800F024F8B9
:10208000002010BD003C024070B50D4D04464FF4D9
:102090007A712878B1FBF0F00A490968B1FBF0F0D9
:1020A00001F0B9F948B9102C07D200222146501E80
:1020B00000F034F800206C6070BD012070BD00009D
:1020C00018000020240000200C4882B0016841F470
:1020D00080410160006800F4804000900748001FC4
:1020E000016841F0805101600068002200F08050DA
:1020F00000900F21901E02B000F010B8443802404A
:10210000002809DB00F01F020121914040098000F6
:1021100000F1E020C0F8001170470000F0B40E4B51
:102120001B68C3F30223C3F10704042C00D9042461
:102130001D1D072D01D2002300E0DB1E012606FA3B
:1021400004F56D1E0D409D409E40761E164045EAEA
:102150000601F0BC06F069BC0CED00E0064A00F098
:10216000070110684FF6FF03184040EA01200349B9
:1021700008431060704700000CED00E00000FA0515
:1021800070470068416200207047F0B50368586AE4
:1021900039B19C6A4FF4827500EB144400204E1E46
:1021A0000AE040EA024098620FE005EB8007DF5941
:1021B000401C04EB1744C0B2B042F6D344EA0240DC
:1021C0004FF4807202EB810158500020F0BDD0F82E
:1021D000E00405F09CBA01EBC10200EB8202D0F8EA
:1021E000E004126A05F0EDB901EBC10200EB8202D6
:1021F000D0F8E004D2F8602205F03FBAD0F8E0044D
:1022000005F087BA0A0601F00F0101EBC10100EBEE
:10221000810101D5143101E001F51571006806F066
:102220006BB970B504460B0601F00F0000EBC0015E
:1022300004EB81014FF001024FF0000502D54A7511
:10224000143103E081F8555201F51571087094F8C6
:102250009404012808D084F89424206805F06AFECC
:1022600084F89454002070BD022070BD70B50446FF
:1022700001F00F002279904201D9012070BD0B06B8
:1022800001F00F0101EBC10104EB81014FF00102EC
:102290004FF0000502D54A75143103E081F855521C
:1022A00001F515718D70087094F89404012808D018
:1022B00084F89424206805F0ABFF84F8945400203F
:1022C00070BD022070BD01F00F0101EBC10100EBF8
:1022D0008100D0F8680270472DE9F04104460F06EE
:1022E00001F00F0000EBC00104EB81014FF001068B
:1022F0004FF0000502D54E75143103E081F85552B8
:1023000001F51571C2F30A0208708A600B714A78F0
:1023100002B14883022B00D14D7194F89404012836
:1023200009D084F89464206805F052FD284684F8AA
:102330009454BDE8F0810220FBE710B501F00F04D2
:1023400004EBC40100EB8101C1E998230023C1F82B
:10235000683281F8553281F85442837901F515715C
:10236000012B00D1CA618279006805F0A9FF002025
:1023700010BD70B504460D4601F00F00217988426A
:1023800001D9012070BD29064FF000064FF001026F
:1023900006D500EBC00104EB81014A75143107E05A
:1023A00005EBC50104EB810181F8556201F515715A
:1023B0008A70087094F89404012807D084F8942453
:1023C000206805F051FF280702D007E0022070BD09
:1023D000A17904F29C42206805F0EEFE84F8946432
:1023E000002070BD10B501F00F0404EBC40100EB38
:1023F0008101C1E9082300238B6201234B7501F899
:10240000144F8379012B00D1CA618279006805F0ED
:1024100057FF002010BD00002DE9F84F0568044665
:10242000284606F004F900287DD1206806F02BF933
:10243000002878D0D5F80808C0F30D20C4F8D404DB
:10244000206806F020F9800704D52068416901F072
:1024500002014161206806F016F9C10604F29C40B1
:10246000009034D52068816921F0100181612F6AC4
:1024700007F00F0000EBC00004EB8006C7F34340F9
:1024800006F51576022802D0062811D01AE047F684
:10249000F070074216D0C7F30A1217462846F168B3
:1024A00006F0F5F8F0683844F0607069384408E0E8
:1024B00008222846009906F0EAF87069C7F30A1165
:1024C000084470612068816941F0100181612068D1
:1024D00006F0D9F800034FF0010B7AD500262068EA
:1024E00006F0B0F88046DFF878A46FE05FEAC870C5
:1024F00069D0F1B2206806F0BEF80746C00707D0E1
:1025000005EB4611C1F808BB3146204603F0D4FD67
:10251000380722D505EB46110820C1F8080B2068C2
:10252000D0F8409000E018E200EB4610D0F8082BFD
:10253000D14505D9110403D54FF40041C0F8081B5B
:10254000204600F0F0FAD14507D9A079012804D13E
:1025500020680121009A05F02FFEF80604D505EB4E
:1025600046111020C1F8080BB8071DD56869000690
:1025700005D5D5F8040840F48061C5F8041806EBC9
:10258000C60004EB800090F8571200F51570012981
:1025900005D10021C170F1B2204600F0E7F905EB4A
:1025A00046110220C1F8080BB80604D505EB461009
:1025B0002021C0F8081BB80405D505EB46104FF4E0
:1025C0000051C0F8081B4FEA5808761CB8F1000FFC
:1025D0008CD1206806F057F840036DD5206806F0CE
:1025E0002AF88046002664E05FEAC8705ED0F1B247
:1025F000206806F02EF80746C00723D006F00F012A
:102600000BFA01F0D5F834188143C5F8341805EBFE
:102610004610C0F808B9A07901280FD106EBC60012
:1026200004EB8000D0E907211144016236B9606AE9
:1026300020B920680121009A05F0BEFDF1B22046C4
:10264000FFF7C9FD380704D505EB46110820C1F88E
:102650000809F80604D505EB46111020C1F8080951
:10266000780604D505EB46104021C0F80819B807D4
:1026700016D53146284605F0AFFF06EBC60004EB41
:102680008000C17D1430012905D10021C170F1B253
:10269000204600F067F905EB46110220C1F8080951
:1026A000380603D53146204603F06CFD4FEA580842
:1026B000761CB8F1000F97D1206805F0E4FF0028E0
:1026C00011DAD5F8040820F00101C5F8041894F8CF
:1026D000CC0401282BD0204600F00AFA206841697A
:1026E00001F000414161206805F0CDFF00050BD5E8
:1026F000D5F80808C00702D0204600F03DFA20684F
:10270000416901F400614161206805F0BCFFC0042B
:1027100067D5D5F8040820F00101C5F80418102188
:10272000206805F059FF00214FF67F3220E000209D
:1027300084F8CC0401462046FFF722FDCEE705EBE6
:102740004110C0F80829D0F8003923F40013C0F86C
:102750000039C0F8082BD0F8003B23F40013C0F870
:10276000003BD0F8003B43F00063C0F8003B491C3D
:1027700020798842E3D8D5F81C0840F00111C5F84B
:102780001C18E07B002828460DD0D0F8840840F0C3
:102790000B01C5F88418D5F8440840F00B01284611
:1027A000C5F844180DE0D0F8140842F22B01084394
:1027B000C5F81408D5F8100840F00B012846C5F8F4
:1027C0001018D0F8000820F4FE61C5F80018A179AF
:1027D0002068009A05F0F0FC2068416901F48051FE
:1027E0004161206805F04FFF800415D5206805F091
:1027F0002FFB206805F00EFFE07100F06FFA014634
:10280000E279206805F0A2FF204600F05BF920681D
:10281000416901F400514161206805F034FF00076F
:1028200007D5204600F068F92068416901F00801E9
:102830004161206805F027FF000615D5A86920F042
:102840008001A96101260CE006EBC60004EB8000C4
:1028500090F85702012803D1F1B22046FFF7D2FCCD
:10286000761C2079B042EFD8206805F00CFFC0023A
:102870001FD501265F4614E005EB4610D0F800197D
:1028800006EBC60004EB8000027E012A08D1002975
:1028900006DAC775F0B240F080012046FFF7B2FCBF
:1028A000761C2079B042E7D82068416901F4801194
:1028B0004161206805F0E7FE800231D501205B46CA
:1028C00026E005EB4011D1F8001B00EBC00204EB41
:1028D000820292F85862012E19D1002917DA94F871
:1028E000D464C1F3004106F001068E420FD182F894
:1028F0005732A96941F08002AA616969090606D4C4
:10290000D5F8040840F40070C5F8040803E0401C42
:1029100021798142D5D82068416901F400114161D3
:10292000206805F0B0FE400007D52046FFF74FFCB9
:102930002068416901F080414161206805F0A3FEF3
:1029400040070AD520684568680702D52046FFF78A
:1029500055FC2068416829434160BDE8F88F0000BC
:102960000A30544FD0F8E00404F025BFD0F8E0045A
:1029700004F035BFF8B5040005D094F89504266836
:10298000002510B106E00120F8BD84F894542046DB
:1029900000F056F8032084F89504B6F1A04F00D15A
:1029A000A571206805F002FC207C8DF8000094E8F9
:1029B0000F0005F05BFA0226B0BB0021206805F08D
:1029C00085FE88BB002101270CE001EBC10004EB70
:1029D000800047750175C1850576C5610562491C92
:1029E000C9B2456220798842EFD8002111E001EB9D
:1029F000C10004EB800080F8555280F8541280F832
:102A00005852C0F85C52C0F86052491CC9B2C0F8B4
:102A1000645220798842EAD8207C8DF8000094E83E
:102A20000F0005F00BFB10B184F89564ABE76574FB
:102A300084F89574206805F0F3FA0020F8BD0000D2
:102A400010B586B0044614216846FDF7F7FD2068EE
:102A5000B0F1A04F2FD119480021026842F00102C5
:102A60000260006800F0010005904FF4C050009033
:102A70000220CDE90101032003900A200490694659
:102A80000F48FFF7EBF90D48001D016841F0800188
:102A900001600A481430016841F480410160006817
:102AA000002200F48040059005214320FFF736FB0B
:102AB0004320FFF725FB06B010BD00003038024070
:102AC0000000024070B50446C079012570B10228AB
:102AD00001D0FEF78AFB2946D4F8E00404F0EEFEAC
:102AE000D4F8E004BDE8704004F0A2BE0025F2E78F
:102AF000D0F8E00404F0CBBED0F8E00404F0D1BE7E
:102B000010B5044690F8940401280AD0012084F8F6
:102B100094046174206805F007FE002084F8940492
:102B200010BD022010BDD0F8E02400F29C411046F8
:102B300004F0D0BE10B50446006894F8941401293E
:102B400009D0012184F89414C168490609D5617B34
:102B5000012902D005E0022010BD816B41F48031D3
:102B60008163206805F016FD206805F04BFA00200F
:102B700084F8940410BD000010B50446D0F8E004B9
:102B800004F0EAFE2068D0F8001E41F00101C0F810
:102B9000001EE07A002804D00248016841F00601D6
:102BA000016010BD10ED00E02DE9F0470D46040076
:102BB00065D0DFF81491D9F80000EFB200F00700FB
:102BC000A84207D289F80070D9F8000000F0070089
:102BD000A84254D120683D4E810712D5400703D545
:102BE000306840F4E05030602078000703D530684A
:102BF00040F4604030603068A16820F0F000084385
:102C000030602078C0072DD030496068083901282D
:102C100012D0022813D0032811D00968890700298F
:102C20002DDA316821F0030101433160FFF704FA26
:102C3000804641F2883A0EE009688903EFE70968A7
:102C40008901ECE7FFF7F8F9A0EB0801514502D93B
:102C50000320BDE8F0873068616800F00C00B0EB3D
:102C6000810FEFD1D9F80010484601F00701A942C1
:102C700007D90770006800F00700A84201D00120C2
:102C8000E7E72078400705D53068E16820F4E05098
:102C9000084330602078000706D53068216920F4A9
:102CA000604040EAC100306000F03EF83168084AF8
:102CB000C1F30311515CC84006490860064800682A
:102CC000FFF7E2F90020C4E7003C02400838024068
:102CD000FCC00008240000201C00002001480068FF
:102CE0007047000024000020044805490068096876
:102CF000044AC1F38221515CC8407047240000207F
:102D0000083802400CC100080448054900680968F9
:102D1000044AC1F34231515CC8407047240000208E
:102D2000083802400CC10008154810B5006810F0C2
:102D30000C01144813D0144B04290FD008290ED1CC
:102D40000F4C241F216801F03F022168490207D57A
:102D50002068C0F38810A0FB030106E0184610BDF0
:102D60002168C1F38811A1FB00010023FDF756FB88
:102D70002168C1F30141491C4900B0FBF1F010BDCD
:102D8000083802400024F400001BB7002DE9F84F7A
:102D9000040075D02078DFF838A3C007AAF1040535
:102DA00048D00AF104000168C1F38101012908D06B
:102DB0000068C0F3810002280AD1DAF8000040025E
:102DC00006D52868800335D560680028E1D031E059
:102DD0006068B0F5803F10D0B0F5A02F286810D003
:102DE00020F480302860286820F480202860606803
:102DF000A0B1FFF721F906460CE0286840F48030C6
:102E0000F4E740F480202860F7E7FFF715F9801B0E
:102E1000642871D828688003F7D50BE0FFF70CF918
:102E2000064604E0FFF708F9801B6428F1D82868FB
:102E30008003F7D42078DFF89C9280074FF0000BD6
:102E40003DD5A348001D016811F00C0F08D00068A3
:102E5000C0F3810002280AD1DAF80000400206D44B
:102E60002868800715D5E068012809D111E0E068DD
:102E7000B8B10120C9F80000FFF7DEF8064605E00A
:102E800022E1FFF7D9F8801B0228C2D82868800702
:102E9000F7D52868216920F0F80040EAC1002860D1
:102EA0000DE0C9F800B0FFF7C7F8064604E0FFF7E9
:102EB000C3F8801B02281FD828688007F7D4207821
:102EC000000722D5824F84486169703771B10121B2
:102ED0000160FFF7B1F8064604E0FFF7ADF8801B8C
:102EE000022809D838688007F7D50EE0C0F800B08E
:102EF000FFF7A2F8064605E082E0FFF79DF8801B89
:102F000002287DD838688007F7D42078400765D537
:102F10006F484FF000083C300068C0000BD46C488C
:102F20003C30016841F08051016000684FF00108B9
:102F300000F080500090694F3868C0050FD43868A1
:102F400040F480703860FFF777F8064604E0FFF73A
:102F500073F8801B022853D83868C005F7D55C4F3A
:102F6000A0686C3701280FD00528386810D020F0F1
:102F700001003860386820F004003860A068B0B103
:102F8000FFF75AF806460EE0386840F00100F4E713
:102F900040F004003860F7E7FFF74EF8811B41F27C
:102FA0008830814263D838688007F5D50DE0FFF797
:102FB00043F8064606E0FFF73FF8811B41F28830F0
:102FC000814254D838688007F5D4B8F1000F05D095
:102FD0003F483C30016821F080510160A069B8B3DE
:102FE0003B49091D0968C1F38101022946D0022825
:102FF000584606D0C9F86000FFF71EF8044639E0CD
:1030000035E04F46C9F86000FFF716F8064604E0C1
:10301000FFF712F8801B022829D828688001F7D40E
:10302000D4E907010843A16A2D4A490802EB01418E
:10303000626A41EA8211084394F82C1040EA016167
:10304000CAF8001001203866FEF7F6FF044605E0D6
:103050003CE0FEF7F1FF001B022808D82868800139
:10306000F7D533E0FEF7E8FF001B022802D9032062
:10307000BDE8F88F28688001F4D427E00128F7D054
:10308000DAF80000E26900F4800191421CD1226A62
:1030900000F03F01914217D147F6C071626A0140CA
:1030A000B1EB821F10D1A26A4FF0FF3300F4403120
:1030B00003EB5202B1EB024F06D194F82C1000F052
:1030C0007060B0EB016F01D00120D1E70020CFE7A5
:1030D0000438024000004742800E47420070004022
:1030E0000000FFFF70B5040009D0606A002540B100
:1030F00025616561A56294F8510040B10CE00120A2
:1031000070BD6068B0F5827FF4D0E561F2E784F8C5
:103110005050204600F044F8022084F85100206806
:10312000016821F040010160A088218900F48270CB
:1031300001F404410843A18901F400610843217CA2
:1031400001F002010843217D01F001010843218BB8
:1031500001F400710843217F01F03801084394F81D
:10316000201001F080010843218D01F40051084333
:1031700021680860A069042101EA104094F8241035
:1031800001F010010843216848602068C16921F4FA
:103190000061C1616565012084F85100002070BDA7
:1031A000F0B587B0044614216846FDF747FA1C497C
:1031B0002068884232D11B480025016841F48051C3
:1031C0000160006800F480500590164814380168CA
:1031D00041F002010160016801F0020105910168FE
:1031E00041F0010101600068022600F00100059035
:1031F0001820CDE90006032705240295CDE90374C4
:1032000069460948FEF72AFE8020CDE900060295AE
:10321000CDE9037469460548FEF720FE07B0F0BD0E
:1032200000300140443802400004024000000240E7
:103230002DE9FF4F81B01F469346044601250E9E9F
:10324000FEF7FAFE804694F851006168012806D026
:10325000B1F5827F3CD1A168C9BB042838D102985E
:10326000002870D0BBF1000FFBD0002FF9D094F8EC
:10327000500001282CD04FF0010A84F850A094F897
:103280005100042802D0052084F851004FF00009B5
:10329000C4F85490C4F838B0E787A787029921632F
:1032A000E786A786C4F84090C4F844902068016877
:1032B000490603D4016841F040010160E068B0F5BF
:1032C000006F606808D0E8B3012F47D07DE0FFE7CA
:1032D000022005B0BDE8F08F08B1012F37D1206B77
:1032E00021680088C860206B801C2063E08E401E2F
:1032F000E0862CE02068816889070DD5E18E59B100
:10330000012D09D1216B0988C160206B801C2063CD
:10331000E08E401EE086002520688168C9070BD03A
:10332000E18F49B1C068A16B0880A06B801CA063CD
:10333000E08F401EE0870125FEF77EFEA0EB08002F
:10334000B04201E00AE064E001D3701C4ED1E08E8F
:103350000028CFD1E08F0028CCD13CE0206B216841
:1033600000780873206B401C2063E08E401EE086CE
:103370002BE02068816889070DD5E18E59B1012DB8
:1033800009D1216B09780173206B401C2063E08E0A
:10339000401EE086002520688168C9070BD0E18FB8
:1033A00049B1C068A16B0870A06B401CA063E08F9E
:1033B000401EE0870125FEF73FFEA0EB0800B0426B
:1033C00002D3701C01D011E086B1E08E0028D0D16C
:1033D000E08F0028CDD142463146204602F06EFFF4
:1033E00050B12020606584F8509012E084F851A01C
:1033F00084F8509003206CE7A06818B92068C16871
:103400008068009084F851A084F85090606D002886
:10341000F1D001205DE710B5401EB0F1807F01D3EF
:10342000012010BD4FF0E02460610F21601705F00E
:10343000FCFA0020A06107202061002010BD704729
:103440007047000070B590F83C20012A32D0012569
:1034500080F83C50022280F83D200268536894684E
:1034600023F070060B6833435360134B02689A4293
:1034700014D0B2F1804F11D0104B9A420ED0104BA5
:103480009A420BD00F4B9A4208D00F4B9A4205D06C
:103490000E4B9A4202D00E4B9A4204D1496824F056
:1034A00080031943916080F83D50002180F83C1062
:1034B000084670BD022070BD0000014000040040BD
:1034C00000080040000C00400004014000400140A2
:1034D0000018004010B5040003D094F83D0010B16E
:1034E00007E0012010BD002084F83C00204600F0D9
:1034F0001FF8022084F83D00211D206803F024F805
:10350000012084F8460084F83E0084F83F0084F8E7
:10351000400084F8410084F8420084F8430084F8B5
:10352000440084F8450084F83D00002010BD0000F0
:1035300008B50068B0F1804F0CD01049884208D11E
:103540000F48016841F400310160006800F4003068
:10355000009008BD0A48001F016841F001010160A8
:103560000068002200F00100009005211C20FEF7F9
:10357000D5FDBDE808401C20FEF7C2BD0044014057
:103580004438024090F83D10012901D001207047D5
:10359000022180F83D100168CA6842F00102CA6049
:1035A00000681149884214D0B0F1804F11D00F4902
:1035B00088420ED00E4988420BD00E49884208D06E
:1035C0000D49884205D00D49884202D00C498842F5
:1035D00004D1816801F00701062903D0016841F098
:1035E000010101600020704700000140000400401C
:1035F00000080040000C0040000401400040014071
:103600000018004070B5044690F83C0000250128E1
:1036100017D0012684F83C60022084F83D00206821
:10362000826822F0770222F47F4282600868502884
:1036300038D00DDC20284FD005DC90B3102811D1F4
:103640004AE0022070BD302846D040280AD13BE035
:1036500060282FD070280DD0B0F5805F03D0B0F572
:10366000005F12D0012584F83D60002084F83C0002
:10367000284670BDCB68D1E90121206802F0D9FF4E
:103680002068816841F0770109E0CB68D1E9012128
:10369000206802F0CEFF2068816841F4804181609B
:1036A000E1E719E0CA684968206803F097F85021FB
:1036B000206806E0CA684968206803F0A0F8602125
:1036C000206802F0C0FFCEE7CA684968206803F0AE
:1036D00085F840212068F4E7226801461046F0E7AB
:1036E00070472DE9F04104460068C66805694FF04F
:1036F0000007A90713D5B10711D5F91E01610120F3
:103700002077206880698007204602D0FFF7E8FF15
:1037100004E000F0A9F8204600F03BF9277768079D
:1037200016D5700714D521686FF0040008610220D7
:1037300020772068806910F4407F204602D0FFF790
:10374000CFFF04E000F090F8204600F022F9277740
:10375000280715D5300713D521686FF008000861D8
:10376000042020772068C0698007204602D0FFF738
:10377000B7FF04E000F078F8204600F00AF9277758
:10378000E80616D5F00614D521686FF01000086120
:10379000082020772068C06910F4407F204602D0BE
:1037A000FFF79EFF04E000F05FF8204600F0F1F81C
:1037B0002777E80708D0F00706D021686FF00100EE
:1037C0000861204600F04EF9280608D5300606D5D7
:1037D00021686FF0800008612046FFF730FE680620
:1037E00008D5700606D521686FF0400008612046B4
:1037F00000F039F9A8060AD5B00608D521686FF09F
:10380000200008612046BDE8F041FFF719BEBDE881
:10381000F081000010B586B0044614216846FCF71C
:103820000DFF0E492068884215D10D48016841F00E
:10383000200101600068012100F020000590402077
:1038400000900220CDE90101039003200490694615
:103850000448FEF703FB06B010BD00000044014021
:103860003038024000140240704770B5044690F8AA
:103870003C0000260D4601280FD0012084F83C00B2
:103880006AB1042A1DD0082A2FD00C2A3FD0012665
:10389000002084F83C00304670BD022070BD2068D6
:1038A00002F0DAFE2068816941F008018161206838
:1038B000816921F004018161206881692A691143CD
:1038C00011E0206802F0F8FE2068816941F400618F
:1038D00081612068816921F480618161206881694A
:1038E0002A6941EA02218161D2E7206802F01AFFC9
:1038F0002068C16941F00801C1612068C16921F0F7
:103900000401C1612068C1692A69114311E020687E
:1039100002F03CFF2068C16941F40061C161206888
:10392000C16921F48061C1612068C1692A6941EAE5
:103930000221C161ACE710B5040003D094F83D004A
:1039400010B107E0012010BD002084F83C002046A3
:1039500000F01EF8022084F83D00211D206802F0CE
:10396000F3FD012084F8460084F83E0084F83F000F
:1039700084F8400084F8410084F8420084F8430051
:1039800084F8440084F8450084F83D00002010BD10
:103990007047704710B5044649B104290AD0082978
:1039A0000BD094F8410001280AD0012010BD94F8F2
:1039B0003E00F8E794F83F00F5E794F84000F2E79E
:1039C0000220B1B3042938D0082939D084F8410045
:1039D0000122206802F020FE1B4920681B4A884211
:1039E00001D0904203D1436C43F400434364206808
:1039F000884213D0B0F1804F10D0154988420DD0C5
:103A0000144988420AD01449884207D0904205D010
:103A10001249884202D01249884204D1816801F0DB
:103A20000701062903D0016841F00101016000206F
:103A300010BDFFE784F83E00CAE784F83F00C7E7FF
:103A400084F84000C4E70000000001400004014089
:103A50000004004000080040000C0040004001400D
:103A6000001800407047704738B5044690F842008F
:103A7000202801D0022038BD71B16AB10120206335
:103A800000206063204603F08DF80246206B012879
:103A900004D00122104638BD012038BD20680168DD
:103AA0004068009020680C3050E8001F41F0100181
:103AB00040E80013002BF5D1ECE7000070B500687A
:103AC0001B4A904232D11B4856151B4D0078AC283A
:103AD0001AD01C2900D91C210C460A461549174842
:103AE000FCF713FD324613491348FFF7BDFFE86B9F
:103AF0000068016821F0080101602246BDE87040BD
:103B00000F490E4804F0AABE0A4806F0BDFE314631
:103B10000848FCF771FD324606490748FFF7A4FF45
:103B2000E86B0068016821F00801016070BD0000C9
:103B300000100140F54D0020A40600203750002061
:103B4000F54F002070470000F8B50168044608688A
:103B5000CA684B6910F00F0F4FF0000559D003F001
:103B6000010602F49077374365D0C10705D0D1052F
:103B700003D5616C41F001016164410705D5D907A6
:103B800003D0616C41F002016164810705D5D9075A
:103B900003D0616C41F004016164010707D502F0B4
:103BA0002001314303D0616C41F008016164616C14
:103BB00000293AD0800604D5900602D5204602F0AE
:103BC00009FF20684069616CC0F38010090700D4C8
:103BD00060B3204602F0C9FE20684069400621D546
:103BE0002068143050E8001F21F0400140E8001226
:103BF000002AF5D1E06BA8B172490165E06BFDF7D1
:103C000097FF002811D0E06B016D01B0BDE8F040D6
:103C1000084783060FD593060DD52046BDE8F8402A
:103C200002F0D8BE2046FFF78DFFF8BD2046FFF713
:103C300089FF6564F8BD266B2023012E7ED1C60660
:103C40007CD5D6067AD508684868009048694FF058
:103C5000020640064DD5E26B106840684FF480774D
:103C60000004000C3AD0A18D814237D9E085D0699B
:103C7000B8422DD020680C3050E8001F21F480712C
:103C800040E80012002AF5D12068143050E8001FE7
:103C900021F0010140E80012002AF5D1206814301B
:103CA00050E8001F21F0400140E80012002AF5D141
:103CB00084F84230256320680C3050E8001F21F062
:103CC000100140E80012002AF5D1E06BFDF7E7FE95
:103CD0006663A08DE18D401A81B206E0A18D81421C
:103CE000A8D1D069B842A5D166632046FFF7E6FEA9
:103CF000F8BDA08DE18D401A81B2E08D0028F7D08B
:103D00000029F5D020680C3050E8002F22F4907282
:103D100040E80027002FF5D12068143050E8002F2C
:103D200022F0010240E80027002FF5D184F842304C
:103D3000256320680C3050E8002F00E006E022F0F8
:103D4000100240E80023002BF3D1CDE705062BD568
:103D5000150629D594F841002128C9D1A068B0F5ED
:103D6000805F01D12069B0B1206A411C21622168C5
:103D700000784860E08C401E0004000CE084B7D15D
:103D80002068C16821F08001C1602068C16841F0ED
:103D90004001C160F8BD206A0088C0F30800486097
:103DA000206A801C2062E5E74006F3D55006F1D575
:103DB000CA68204622F04002CA6084F8413000F010
:103DC000E9F9F8BD2368000870B5040004D094F840
:103DD0004100002510B106E0012070BD84F840507C
:103DE000204600F023F8242084F841002068C168B0
:103DF00021F40051C160204602F04EFE20680169A6
:103E000021F4904101612068416921F02A0141615A
:103E10002068C16841F40051C1606564202084F8C5
:103E2000410084F842006563002070BD2DE9F04F29
:103E300087B0044614216846FCF700FC7F48DFF891
:103E4000F8811438D4F800C07C4B022103220727E4
:103E5000002506154FF0400B4FF0006AC4456AD1AB
:103E6000D3F800C04CF0100CC3F800C01B6803F07E
:103E700010030593036843F002030360036803F033
:103E800002030593036843F0010303600068894659
:103E900000F0010005908020CDE90009CDE9025233
:103EA0009046694604976648FDF7D8FF7010CDE943
:103EB0000009CDE90258694604976248FDF7CEFF34
:103EC000DFF8888160494046C8F80010C0E901A5C4
:103ED000C0E90356C8F81450C8F81850C8F81C5068
:103EE000C8F820505746B146C8F82450FDF702FFE5
:103EF00008B1FDF77AF9554EC4F83C806036C8F831
:103F00003840C6E903597561B5614F48F5613562BE
:103F10007830756286E881083046FDF7EBFE08B11F
:103F2000FDF763F9A663002205212520B463FEF79F
:103F3000F5F825203EE0DFF81881C4453FD13F4B1E
:103F40001B1FD3F800C04CF4802CC3F800C01B68C2
:103F500003F480230593036843F0040303600068BF
:103F600000F0040005904FF440608DE82300CDE997
:103F7000032769463748FDF771FF344F3648C0378D
:103F80003860C7E901A5C7E903567D614FF44030A9
:103F9000BD61C7E9075038467D62FDF7ABFE08B149
:103FA000FDF723F9E763002205212720BC63FEF714
:103FB000B5F82720FEF7A4F807B0BDE8F08F274F2B
:103FC000BC45F9D11F6847F020071F601B6803F04C
:103FD00020030593036843F040030360006800F08A
:103FE000400005904FF484408DE823000820CDE97F
:103FF000032069461A48FDF731FF1348194F603016
:104000003860C7E903567D61BD61FD613D624FF0D7
:1040100020607D62C7E9010B3846FDF76BFE08B1F1
:10402000FDF7E3F8A763002205214720BC63FEF7F4
:1040300075F84720BEE700000010014044380240F8
:104040000004024000000240406402407C0700205F
:10405000004800400008024028600240001401406F
:10406000001802409C080020704770472DE9F84373
:10407000044690F841001F4615460E46202802D0FF
:104080000220BDE8F8838EB185B100206064212054
:1040900084F84100FDF7D0FFA5848146E584A0683F
:1040A0004FF02008B0F5805F02D003E00120E8E780
:1040B000206910B1354600260EE000250CE0802175
:1040C000204602F0C1FDA0B9BDB115F8010B216871
:1040D0004860E08C401EE084E08C4B464FF00002CC
:1040E00000970028EBD14FF04001204602F0ACFDD4
:1040F00040B184F841800320C3E736F8020BC0F3D7
:104100000800E4E784F841800020BAE737B50446A8
:1041100090F84100202801D002203EBD019901B352
:10412000FAB12162A284E28400206064212384F831
:104130004130A56B144BEB63A56B144B2B64A56B43
:10414000134BEB64A36B186520681346A56B021D27
:104150002846FDF739FE30B110206064202084F835
:10416000410001203EBD21686FF0400008602068DA
:10417000143050E8001F41F0800140E80012002A8E
:10418000F5D100203EBD00001F69000861690008EC
:10419000316800087047704770B5044600203C4DF8
:1041A0002074A27B288861684243D4F8F400FCF7AD
:1041B000F1F9A17B288841436068FCF73FFAA07BB6
:1041C00010FB00F128884143D4F81801FCF736FAB7
:1041D000207BA17B10FB01F128884143D4F80C011E
:1041E000FCF72CFA00202BE0D4F8F41001EB80024D
:1041F00092ED000AB5EEC00AF1EE10FA1ED0227C54
:1042000001EB820181ED000A227C616A8854A16978
:10421000227B01EB8001237C91ED000A6169095C3E
:1042200012FB03116FF0030202EB8101D4F80C21A1
:10423000114481ED000A217C491C2174401CC0B24C
:10424000A17B8142D0D8002010E0636AE2691B5C48
:1042500002EB830292ED000A10FB0101D4F8182151
:10426000401C02EB8101C0B281ED000A217C814239
:10427000EBD8C8B224F8780F14F86C0C6080208159
:104280006181218361832084618424F8301C70BDA6
:1042900098000020FEE7000010B504462DED048BC9
:1042A000D0F8EC00D0ED009AD0ED018A90ED029AA2
:1042B00029EEA90A90ED038A08EEA80A09EE090A78
:1042C00008EE080A05F0A8FD0020D4F8EC1001EB78
:1042D0008001401CD1ED000AC0B2042860EE800AC3
:1042E000C1ED000AF1D33F48D4F8001190ED6F0AF8
:1042F00060EE280AB6EE000A60EE800AC1ED040AFC
:10430000D0ED6F0AD4F8001160EE890A60EE800AE1
:10431000C1ED050AD0ED6F0AD4F8001120EEA91AFC
:10432000FEEE000A21EE201A81ED0A1A90ED6F1AB6
:10433000D4F8001121EE081A21EE001A81ED0B1AB3
:1043400090ED6F1AD4F8001121EE081A21EE201A10
:1043500081ED101A90ED6F1AD4F8001121EE291A90
:1043600021EE201A81ED111A90ED6F1AD4F8001188
:1043700021EE091A21EE000A81ED160A90ED6F0A6E
:10438000D4F8001120EE280A20EE200A81ED170A49
:10439000D4F8F810D0ED740A91ED1C0A80EE201AC2
:1043A00081ED1C1AD4F8F810D0ED740A91ED230AAF
:1043B00080EE201A9FED0D0A81ED231AD4F8F80043
:1043C0000949026F8A4201DD80ED1C0AD4F8F80029
:1043D000D0F88C208A4201DD80ED230ABDEC048BED
:1043E00010BD00002848002000401C4600401C462C
:1043F00070B5294C05460126267004F5D87080EC6E
:10440000030A00209FED250A84ED730A84F8380121
:10441000C4E95000C4E9520011EE900AB0F17E5F89
:1044200001DDF7EE001AC4ED741A84ED642A03234B
:1044300000220621201D00F023FE194B0122114607
:10444000A3F1080004F091FF002105EB810090ED3D
:10445000000AD4F8EC0000EB8100491C80ED000A52
:104460000429F2DB0F4844F8D00F0F4860600F4872
:10447000A0600F48E06004F8A26C04F8A16C9022E0
:104480000C49606BFCF786F8E06ABDE8704090224A
:104490000949FCF77FB800002848002077CC2B3270
:1044A000F0490020BD44000899420008F14400088A
:1044B0009549000814C10008E000002010B504462A
:1044C000902254F8F81F0848FCF764F8482207487F
:1044D000616AFCF75FF8054861694822BDE8104051
:1044E0004830FCF757B80000E0000020084A0020E0
:1044F00070B50446B0EE000A54F8EC0F2B4DD0ED29
:10450000000A60EE800AC5ED090AD0ED010A60EEEE
:10451000800AC5ED0A0AD0ED020A60EE800AC5EDF8
:104520000B0AD0ED030A20EE800A85ED0C0A14F880
:10453000DE0C14F8E01C10FB01F11D48008841431B
:10454000206AFCF77BF8D5ED0B1A206AB1EE612AE0
:1045500080ED002A206A95ED0C1A80ED011A95ED88
:10456000090A206AF1EE400AC0ED020A206AD5ED80
:104570000A0AC0ED030A206AC0ED060A206A80ED2F
:10458000070A206A80ED081A206AC0ED091A206A1D
:1045900080ED0C0A206AB1EE600A80ED0D0A206AF7
:1045A00080ED0E2A206A80ED0F1A70BD9C0000205D
:1045B0009800002070B5EC4CEC4D90222DED048B52
:1045C000B0EE619AB0EE628A84ED6F3AD4ED581A7B
:1045D000F0EE428AE64970EE611AC4ED5B1A94ED82
:1045E000590A30EEC00A84ED5C0AD4ED5A0A71EE25
:1045F000600AB6EE001A61EE811A20EE010AC4EDDF
:104600005D0A61EE831A20EE030AC5ED001A85EDFE
:10461000010A20EE810A20EE030A85ED020AD4F891
:10462000040104F58274FBF7B5FFD5ED000A20689C
:10463000B1EE602A80ED012A95ED011A2068F1EEB5
:10464000412AC0ED022A95ED020A2068F1EE401AD7
:10465000C0ED031A2068C0ED060A206880ED080A44
:104660002068C0ED092A206880ED0C1A2068C0ED92
:104670000D1A2068C0ED0F0A206880ED120A20682C
:1046800080ED131A54F8440B80ED142A74E852019B
:10469000084305D184ED5E9AC4ED5F8A84ED608A9B
:1046A00094ED5E0A94ED641AD4ED6F0A20EE012AAF
:1046B00030EE810AC2EE001A20EE892AC2EE002AEC
:1046C00031EEA23A84ED5E3AD4ED5F1A21EE812AF2
:1046D000C2EE001A20EEA82A60EE880AC2EE002A76
:1046E00071EEA21AC4ED5F1A94ED602A22EE012A3F
:1046F00082EE001A80EE802A23EE030A01EEA10A60
:1047000071EE020AC4ED600A00EEA00A05F084FB17
:1047100085ED030A002004EB8001D1ED5E0AA1685B
:1047200001EB800160EE800A401CC0B2C1ED000ABE
:104730000328F0D394ED5B0AD4ED5C0A20EE000A66
:1047400000EEA00AD4ED5D0A00EEA00A05F064FBBD
:10475000B7EE009A874989EE001A84ED651AD5ED07
:10476000030A11EE100A89EE200A884284ED660AD7
:104770000BDA10EE100A8049884206DD10EE100AAE
:104780007E49884201DA012000E0002084F83901E6
:1047900094ED6C0AD4ED6F0AD4F8180120EE200ACB
:1047A00080ED000A94ED6C0AD4ED6F0AD4F818017C
:1047B00020EE200A80ED070A94ED6C0AD4ED6F0A12
:1047C000D4F8180120EE200A80ED0E0A94ED6C0A50
:1047D000D4ED6F0AD4F8180120EE200A80ED150AF6
:1047E00094ED6D0AD4ED6F0AD4F8180120EE200A7A
:1047F00080ED1C0A94ED6D0AD4ED6F0AD4F818010F
:1048000020EE200A80ED230AD4F81C0194ED6E0AF4
:1048100080ED000AD4F81C0194ED6E0A80ED040AC4
:10482000D4F81C0194ED6E0A80ED080A201D00F0FA
:1048300011FF606890ED001A84ED541A90ED010AA2
:1048400084ED550A90ED022A84ED562AD0ED031A24
:10485000C4ED571AD0ED040AC4ED580AD0ED050A8C
:10486000C4ED590ADFED460A61EE012A21EE211A54
:10487000C4ED5A0AB0EE008A40EE002A00EE021A99
:10488000F0EE490A52EE880A21EE080A04F000FA16
:10489000DFED3C8AF0EE490A20EE280A84ED6A0A30
:1048A00094ED540A94ED571A60EE001A41EE011A85
:1048B00051EE880AD4ED551A20EE210AD4ED561A8D
:1048C00001EE810A20EE080A04F0E2F920EE280A3F
:1048D00084ED690A94ED550AD4ED570A94ED561A01
:1048E00020EE200AD4ED540A00EEC10AF8EE000AC8
:1048F00020EE200A04F036F920EE280A224984ED41
:10490000680A94ED6A0AD4ED760A70EE600A10EE39
:10491000900A884203DDB4F8D401401E07E010EE8F
:10492000900A1A49884204D9B4F8D401401CA4F86A
:10493000D401B4F9D401DFED161A00EE900AB8EEF6
:10494000E01AF0EE400A41EE210AC4ED6B0A84ED54
:10495000760AF4E95201401C41F10001C4E900016A
:10496000BDEC048B70BD0000284800209C00002096
:1049700014C100089A99993ECDCC1441CDCC244164
:1049800000000000E12E6542DA0F4940DA0F49C00D
:104990000000B4432DE9F84F00F18001044678305F
:1049A0000546009104F08FFE84F8C800B4F8780042
:1049B000A4F8A800B4F85A00A4F8AA0004F1A802C8
:1049C00004F1580191468B46284604F02FFE84F8E6
:1049D000C800B4F8A800A4F8B000B4F88200A4F8A5
:1049E000B20004F1B00290464846009904F01EFE61
:1049F00084F8C800B4F89000A4F8A000B4F89200BD
:104A0000A4F8A20004F1A002154604F1900140466A
:104A100004F096FC84F8C80041462846B03404F0FF
:104A2000A9FC2076E06BBD490125D0ED001AF0EE1F
:104A3000002AC1ED0D1A90ED011A002781ED0E1A22
:104A4000D0ED020AB64EC1ED0F0A90ED030A81EDDA
:104A5000100A21EE002A34F8380C2081658101EE1D
:104A6000E02AE06F22EE222A80ED002A21EE812A40
:104A700061EEA11AE06F00EE802A41EE411A22EEAB
:104A8000222A40EEE01A80ED012AE06FB03C40EEB1
:104A9000001AC0ED021AD4F82C0100EB870090ED4B
:104AA000000AB0EEC00A03F0D1FF06EB87007F1CBE
:104AB000FFB280ED610A032FEDD3B4F84800A4F8EB
:104AC000C00004F1C00204F1B801A4F8C2501746B6
:104AD0008A4604F1480004F0E1FD84F8C800B4F807
:104AE000C000A4F8A80024F8AA5F4A463946404608
:104AF00004F09CFDA077E581E08A2082514638468B
:104B000004F0E1FDA077874A4946504604F08EFD47
:104B1000A07796ED730AB6EE001AD6ED720A20EE73
:104B2000011AAA3CF4EEC10AF1EE10FA01D286F89D
:104B30003851F4EEC00A0020F1EE10FA34DD96F898
:104B4000381181B396F8391129B1D6E95012491CB0
:104B500042F1000201E000210A46C6E95012D6E9FE
:104B600050234FF0320C0021BCEB0202994102D2DB
:104B700086F8380136E06C4E14F80C2F308842432A
:104B8000D4E937017434FBF705FD14F8740C10FBFD
:104B900000F230884243D4E91E01FBF7FBFC04F825
:104BA000545CBDE8F88FFFE79FED601A20EE011A14
:104BB000F4EEC10AF1EE10FA0DDD96F8381151B19C
:104BC00070EE600A9FED5A1A20EE010A80EE801AFC
:104BD00086ED671A03E0B7EE000A86ED670A00214A
:104BE000C6E9501184F82C00B4F85800A4F8A800C5
:104BF000B4F88200A4F8AA004A4658466C340099DA
:104C000004F014FD04F85C0FA4F130029346414611
:104C10004846C83C04F00AFD84F8C80000200DE0B6
:104C2000D4F81C11D6ED670A01EB8001401C91ED10
:104C3000000AC0B220EE200A81ED000AB4F89810F4
:104C4000B4F89A2051438142EADC04219FED390AED
:104C5000002006EB810C01EB41039CED5D1AD4F8BA
:104C60001C2103EB0008C1EE000A02EB8802401C85
:104C700092ED001AC0B2032860EE810AC2ED000A6C
:104C8000EBD3491CC9B20629E2D334F8980F524637
:104C9000208465843946584604F0C8FC84F8300006
:104CA000606A9FED250A983C80ED030A96F838016A
:104CB00050B3DFED220A9FED221A0420D4F8BC1075
:104CC00096ED6F0A01EB800120EE200AD1ED001A6B
:104CD000F4EEC01AF1EE10FA01DD81ED000AD4F80D
:104CE000BC1096ED6F0A01EB800120EE010AD1EDB8
:104CF000001AF4EEC01AF1EE10FA01D281ED000AAA
:104D0000401CC0B20628D9D304F13002514604F148
:104D1000380004F015FB84F8C80042E79C0000202E
:104D200028480020E849002098000020CDCCCC3D48
:104D30006666663FDA0FC93F000000000AD7233CD1
:104D40000AD723BC2DED028B86B000F033F99FED1E
:104D50008A8A8A484FF0FF31006806F0FDF9894FD2
:104D6000DFF81C92A7F1940404F1440004900C3085
:104D7000DFF81482854D07F10C0A04F15C0B6E46D6
:104D8000F7EE008A039081481030FCF7D9F885EDE2
:104D9000000A7B48FBF702FE99ED030A84ED040A42
:104DA000D9ED040AC4ED050A99ED051A84ED061A39
:104DB00087EC030AD9ED001AC4ED071A99ED012A10
:104DC00084ED082AD9ED022AC4ED092ACAEC021A98
:104DD000CAED022A95ED003AFFF7ECFB6C480FC8CC
:104DE00084E80F00674A6B48943A0499FBF7C1FEC8
:104DF000644A6848943A0C300399FBF7BAFE614A5A
:104E00006448943A59461830FBF7B3FE5D4A61484E
:104E1000943A69462430FCF773F995ED001A0020A6
:104E200004EB800106EB800291ED070AD2ED000A47
:104E3000401CC0B230EE600A032820EE012A94ED37
:104E4000100A70EE010AC2EE201A91ED0A2A22EE33
:104E5000000A80EE202A31EE820A81ED0A0ADFD3B1
:104E6000484A943A02F13401A1F10C00FBF781FEAB
:104E700094ED0D0AB0EEC00A10EE101A414501DAA9
:104E800084ED0D8A94ED0E0AB0EEC00A10EE101AF1
:104E9000414501DA84ED0E8A94ED0F0A3E49B0EEE9
:104EA000C00A10EE100A884201DB686904E084ED54
:104EB0000F8A6869401C68610A2803DD0020686168
:104EC00084ED228A95ED020A344910EE100A8842D8
:104ED00049DD94ED220A94ED0E1ADFED310A01202E
:104EE000314901EE200A84ED220A94ED231A00EEE6
:104EF000201A84ED231A84F890002A4890ED6A0A5B
:104F000084ED1E0AD0ED690AC4ED1D0AD0ED680AD1
:104F1000C4ED1C0AD0ED6B0AC4ED1F0AD4ED200AC3
:104F200070EE600A10EE900A884204DDD4ED210A8A
:104F300070EEE80A08E010EE900A1C49884205D994
:104F4000D4ED210A70EEA80AC4ED210A94ED211ACD
:104F5000DFED171AF0EE400A41EE210AC4ED1F0AF8
:104F600084ED200A03E030EE280A85ED020AE868A5
:104F7000401CE86007E7000000000000000200207D
:104F8000784B00202C4B0020CDCCCC3C7001002075
:104F900078490020A4C10008EC51383D0000F041E0
:104FA0006F12833A28480020DA0F4940DA0F49C0CF
:104FB000560EC94000B51A482DED028B85B00FC8BA
:104FC0008DE80F006846FCF715F89FED168AF7EE9E
:104FD000001A9FED151AB0EE482ADFED140AB2EE62
:104FE000040A6846FFF704FA00211148FEF7D2FCD4
:104FF0009FED102ADFED101AB0EE481AF3EE040A06
:105000009FED0E0A0E4805F0ADF80D489FED0D0A14
:10501000AC3880ED100A05B0BDEC028B00BD00007D
:10502000E0C10008000000008096184B6F12833A20
:105030005C0600200000FA440000964300007A4419
:10504000444B002096430B3CF0B500230A24302546
:1050500037261F4610E0B4EB107F02D905EB107C19
:1050600001E006EB107C01F813C001EB430C0001DA
:105070005B1C8CF80170DBB29342ECD3F0BD0000F6
:105080002DE9F047DFF8DC830D460421A8F8001075
:105090000821A8F802100573427383734FF00009CA
:1050A0001E46044680F8109017463046FBF760F91C
:1050B00031466061FBF7A0FAB8F800007043FBF7D7
:1050C00057F9A061B8F800107143FBF7B7FAB8F8C8
:1050D00000007043FBF74CF9E061B8F80010714331
:1050E000FBF7ACFAB8F800006843FBF741F920621F
:1050F000B8F800106943FBF7A1FA3046FBF738F91E
:1051000031466062FBF778FAB8F800006843FBF7B5
:105110002FF92060B8F800106943FBF78FFAB8F850
:1051200000007043FBF724F96060B8F80010714389
:10513000FBF784FAB8F800007843FBF719F9A06090
:10514000B8F800107943FBF779FAB8F80000684323
:10515000FBF70EF9C4F8E800B8F800106943FBF754
:105160006DFA217B012204F13000D4F8E83004F01C
:10517000FCF8B8F800006843FBF7FAF8C4F8EC0054
:10518000B8F800106943FBF759FA217B012204F1BA
:105190003800D4F8EC3004F0E8F89FB1B8F800001B
:1051A0007843FBF7E5F8C4F8F000B8F8001079434D
:1051B000FBF744FA617B012204F14000D4F8F0309F
:1051C00004F0D3F8B8F800007043FBF7D1F8C4F846
:1051D000F400B8F800107143FBF730FAA17B01220C
:1051E00004F14800D4F8F43004F0BFF8B8F8000037
:1051F00068436843FBF7BCF8C4F8F800B8F800103F
:1052000069436943FBF71AFA217B04F150000A460F
:10521000D4F8F83004F0A9F8B8F8000068436843FF
:10522000FBF7A6F8C4F8FC00B8F80010694369431E
:10523000FBF704FA217B04F158000A46D4F8FC304D
:1052400004F093F8B8F8000068436843FBF790F85F
:10525000C4F80001B8F80000883468436843FBF7DD
:1052600087F8E067B8F80010A06F69436943FBF75F
:10527000E5F9B8F80010E06F69436943FBF7DEF920
:1052800054F8783FA4F1A00014F8F41CA4F580743D
:105290000A4604F06AF8217B04F168000A46D4F853
:1052A000043104F062F8AFB1B8F800006843784305
:1052B000FBF75EF8C4F80801B8F8001069437943B9
:1052C000FBF7BCF9627B217B04F17000D4F8083154
:1052D00004F04BF8B8F80000474670436843FBF70A
:1052E00047F8C4F80C013888943468437043FBF7DE
:1052F0003FF8E0673988A06F71436943FBF79EF977
:105300003988E06F69437143FBF798F914F8882CEA
:1053100014F8861CA4F11C00A36F943C04F025F83B
:10532000A27B217B04F18000D4F8103104F01DF839
:10533000388868436843FBF71BF8C4F814013988C0
:1053400069436943FBF77AF9217B04F188000A4637
:10535000D4F8143104F009F8388870437043FBF72F
:1053600007F8C4F81801398871437143FBF766F9EF
:10537000A17B04F190000A46D4F8183103F0F5FF40
:10538000388868437043FAF7F3FFC4F81C01398882
:1053900069437143FBF752F9A27B217B04F198002A
:1053A000D4F81C3103F0E1FF207B10FB00F03988BA
:1053B0004843FAF7DDFFC4F82001207B10FB00F022
:1053C00039884843FAF7D4FFC4F82401207B10FB46
:1053D00000F039884843FAF7CBFFC4F82801207B56
:1053E00039884843FAF7C4FFC4F82C01207B398878
:1053F0004843FAF7BDFFC4F83001217B04F1A00057
:105400000A46D4F8203103F0B0FF217B04F1A80054
:105410000A46D4F8243103F0A8FF217B04F1B00040
:105420000A46D4F8283103F0A0FF217B012204F1C1
:10543000B800D4F82C3103F098FF217B012204F14D
:10544000C000D4F8303103F090FF04F8289F84F8AE
:10545000019084F8029084F8039084F80490BDE8E9
:10546000F08700009800002070B50446C07B0F4D07
:1054700018B12046FEF790FE0DE0A27B28886168F7
:105480004243D4F8F400FBF785F8A17B2888414318
:105490006068FBF7D3F8627B2888A1684243D4F8A0
:1054A000F000BDE87040FBF775B8000098000020E0
:1054B0002DE9F041044690F82C0000282BD1B4F8D7
:1054C0009800A4F8A800B4F87A10A4F8AA10A4F8D8
:1054D000B000B4F85A00A4F8B20004F1A8021546CE
:1054E00004F1780104F1980004F0A0F884F8C800F1
:1054F00004F1B00204F1580116460F46284604F0A4
:1055000095F884F8C80004F150023146384604F09A
:10551000C5F884F8C800BDE8F0812DE9F0410446E3
:1055200090F8290000282CD104F1680104F16000F2
:105530000F46064604F0C7F884F8C80004F1580284
:10554000154604F15001304604F070F884F8C800A4
:10555000B4F85800A4F8A800B4F86A00A4F8AA00A7
:1055600004F1A80216463946284604F05FF884F88C
:10557000C8002A4604F18801304603F0E1FE84F8B1
:10558000C800BDE8F0812DE9F047044690F82A00F4
:1055900000285CD104F1800104F1780089460546B9
:1055A00004F091F884F8C800B4F87800A4F8A800D2
:1055B000B4F85A00A4F8AA0004F1A80204F15801B2
:1055C00090460F46284604F031F884F8C800B4F835
:1055D000A800A4F8B000B4F88200A4F8B20004F166
:1055E000B00215464946404604F020F884F8C80049
:1055F000B4F89000A4F8A000B4F89200A4F8A200B7
:1056000004F1A002164604F19001284603F098FE2A
:1056100084F8C80029463046AA3403F0ABFEA077D0
:1056200034F8520C24F8020C34F8280C208042463E
:105630004946384603F0FAFF04F81E0FA4F1300281
:1056400029464046C83C03F0F1FF84F8C800BDE895
:10565000F087000070B50446FFF706FFD4F8CC10C1
:1056600009B120468847204600F068F8D4F8D010E9
:1056700009B1204688472046FFF74FFFD4F8D410E1
:1056800009B120468847207C2B4DC0B9E07BB0B1E2
:10569000227B28884243D4E93A01FAF77BFF207B3A
:1056A00010FB00F228884243D4E93E01FAF772FF6A
:1056B000D4F8E01009B120468847002029E02046B0
:1056C000FFF761FFD4F8D81009B12046884720467B
:1056D00000F06EF8D4F8DC1009B120468847204667
:1056E000FFF7E6FEE4E710FB0101D4F8F82002EB37
:1056F0008101226AD1ED000A02EB800292ED000ADC
:10570000F4EEC00AF1EE10FA01D281ED000A401C5D
:10571000C0B2217B8142E6D8CAB22888D4F8E8100A
:1057200042432068FAF736FFD4F8E41009B1204666
:105730008847206870BD0000980000202DE9F041E6
:10574000044690F8280000282AD1627B04F1300139
:1057500004F1600004F1380522B3227BA4F8B820DC
:10576000012604F1B802A4F8BA60174603F05EFF00
:1057700084F8C800207BA4F8C000A4F8C26004F13B
:10578000C002164604F1400104F1700003F04EFF20
:1057900004F8C80F2A463146384603F0D1FD207080
:1057A000BDE8F0812A4603F041FF84F8C800F7E71E
:1057B0002DE9F041044690F82B00002838D1B4F8C8
:1057C0007800A4F8B800012504F1B80204F138010A
:1057D000A4F8BA5090460F4604F1780003F026FF73
:1057E00084F8C800B4F84800A4F8C00004F1C0026E
:1057F000A4F8C2501646414604F1480003F04EFF9B
:1058000084F8C800B4F89800A4F8B800A4F8BA5016
:105810004246314604F1980003F008FF84F8C800BE
:1058200004F130024146384603F08AFD84F8C8008E
:10583000BDE8F08190ED001AB4EEE01AF1EE10FA36
:1058400002DBC0ED000A7047B4EEC01AF1EE10FAA8
:10585000F9D880ED000A7047104810B50E49016074
:105860000321416000214FF410228160C0E903123E
:105870004FF4001242610176012242768176C176B0
:1058800001774177FBF7D3FF002803D0BDE8104034
:10589000FBF7ABBC10BD0000006400409405002085
:1058A000194808B5016841F480010160016801F4FC
:1058B00080010091016841F400110160006800223C
:1058C00000F40010009005210C20FCF727FC0C20B0
:1058D000FCF716FC002205213A20FCF71FFC3A20B9
:1058E000FCF70EFC002205214520FCF717FC4520A3
:1058F000FCF706FC002205214620FCF70FFCBDE862
:1059000008404620FCF7FCBB3038024010B5A4B07C
:1059100003220021012005F0B9FA1D4C1C221D496B
:1059200020606846FAF736FE0021684604F00AFB5C
:105930001849A0601C221C3107A8FAF72BFE002191
:1059400007A804F0FFFA1349E0601C2238310EA8C2
:10595000FAF720FE00210EA804F0F4FA0D492061A8
:105960001C22543115A8FAF715FE002115A804F0E1
:10597000E9FA084960611C2270311CA8FAF70AFE96
:1059800000211CA804F0DEFA606024B010BD000005
:105990000000002068C000082DE9F04186B0142105
:1059A0006846FAF74BFE3A480024016841F040018E
:1059B0000160016801F040010591016841F00201B8
:1059C0000160016801F002010591016841F00101E7
:1059D0000160016801F001010591016841F00801D1
:1059E0000160016801F008010591016841F00401BE
:1059F0000160016801F004010591016841F0800136
:105A00000160016801F080010591016841F0200109
:105A100001600068012200F020001E4E1502059072
:105A200029463046FCF702FB1B4F00221021384666
:105A3000FCF7FCFADFF86480002201214046FCF705
:105A4000F5FA00950125CDE90154694630460394E5
:105A5000FCF704FA10200090CDE90154694638465D
:105A60000394FCF7FBF9302000904FF48810CDE947
:105A7000010469463046FCF7F1F90095CDE901547F
:105A8000694640460394FCF7E9F906B0BDE8F081A9
:105A9000303802400008024000000240000402408A
:105AA000104810B50E4901604FF482714160002129
:105AB00002228160C0E90312012242615202826126
:105AC0003822C0E90721416281620A21C162FDF7E3
:105AD00009FB002803D0BDE81040FBF786BB10BDD2
